{
  "contractName": "DogToken",
  "abi": [
    {
      "constant": true,
      "inputs": [
        {
          "name": "_interfaceId",
          "type": "bytes4"
        }
      ],
      "name": "supportsInterface",
      "outputs": [
        {
          "name": "",
          "type": "bool"
        }
      ],
      "payable": false,
      "stateMutability": "view",
      "type": "function"
    },
    {
      "constant": true,
      "inputs": [],
      "name": "name",
      "outputs": [
        {
          "name": "",
          "type": "string"
        }
      ],
      "payable": false,
      "stateMutability": "view",
      "type": "function"
    },
    {
      "constant": true,
      "inputs": [
        {
          "name": "_tokenId",
          "type": "uint256"
        }
      ],
      "name": "getApproved",
      "outputs": [
        {
          "name": "",
          "type": "address"
        }
      ],
      "payable": false,
      "stateMutability": "view",
      "type": "function"
    },
    {
      "constant": false,
      "inputs": [
        {
          "name": "_to",
          "type": "address"
        },
        {
          "name": "_tokenId",
          "type": "uint256"
        }
      ],
      "name": "approve",
      "outputs": [],
      "payable": false,
      "stateMutability": "nonpayable",
      "type": "function"
    },
    {
      "constant": true,
      "inputs": [],
      "name": "InterfaceId_ERC165",
      "outputs": [
        {
          "name": "",
          "type": "bytes4"
        }
      ],
      "payable": false,
      "stateMutability": "view",
      "type": "function"
    },
    {
      "constant": false,
      "inputs": [
        {
          "name": "_from",
          "type": "address"
        },
        {
          "name": "_to",
          "type": "address"
        },
        {
          "name": "_tokenId",
          "type": "uint256"
        }
      ],
      "name": "transferFrom",
      "outputs": [],
      "payable": false,
      "stateMutability": "nonpayable",
      "type": "function"
    },
    {
      "constant": false,
      "inputs": [
        {
          "name": "_from",
          "type": "address"
        },
        {
          "name": "_to",
          "type": "address"
        },
        {
          "name": "_tokenId",
          "type": "uint256"
        }
      ],
      "name": "safeTransferFrom",
      "outputs": [],
      "payable": false,
      "stateMutability": "nonpayable",
      "type": "function"
    },
    {
      "constant": true,
      "inputs": [
        {
          "name": "_tokenId",
          "type": "uint256"
        }
      ],
      "name": "exists",
      "outputs": [
        {
          "name": "",
          "type": "bool"
        }
      ],
      "payable": false,
      "stateMutability": "view",
      "type": "function"
    },
    {
      "constant": true,
      "inputs": [
        {
          "name": "",
          "type": "uint256"
        }
      ],
      "name": "breederList",
      "outputs": [
        {
          "name": "",
          "type": "address"
        }
      ],
      "payable": false,
      "stateMutability": "view",
      "type": "function"
    },
    {
      "constant": true,
      "inputs": [
        {
          "name": "_tokenId",
          "type": "uint256"
        }
      ],
      "name": "ownerOf",
      "outputs": [
        {
          "name": "",
          "type": "address"
        }
      ],
      "payable": false,
      "stateMutability": "view",
      "type": "function"
    },
    {
      "constant": true,
      "inputs": [
        {
          "name": "_owner",
          "type": "address"
        }
      ],
      "name": "balanceOf",
      "outputs": [
        {
          "name": "",
          "type": "uint256"
        }
      ],
      "payable": false,
      "stateMutability": "view",
      "type": "function"
    },
    {
      "constant": false,
      "inputs": [],
      "name": "renounceOwnership",
      "outputs": [],
      "payable": false,
      "stateMutability": "nonpayable",
      "type": "function"
    },
    {
      "constant": true,
      "inputs": [],
      "name": "ticker",
      "outputs": [
        {
          "name": "",
          "type": "string"
        }
      ],
      "payable": false,
      "stateMutability": "view",
      "type": "function"
    },
    {
      "constant": true,
      "inputs": [],
      "name": "owner",
      "outputs": [
        {
          "name": "",
          "type": "address"
        }
      ],
      "payable": false,
      "stateMutability": "view",
      "type": "function"
    },
    {
      "constant": false,
      "inputs": [
        {
          "name": "_to",
          "type": "address"
        },
        {
          "name": "_approved",
          "type": "bool"
        }
      ],
      "name": "setApprovalForAll",
      "outputs": [],
      "payable": false,
      "stateMutability": "nonpayable",
      "type": "function"
    },
    {
      "constant": false,
      "inputs": [
        {
          "name": "_from",
          "type": "address"
        },
        {
          "name": "_to",
          "type": "address"
        },
        {
          "name": "_tokenId",
          "type": "uint256"
        },
        {
          "name": "_data",
          "type": "bytes"
        }
      ],
      "name": "safeTransferFrom",
      "outputs": [],
      "payable": false,
      "stateMutability": "nonpayable",
      "type": "function"
    },
    {
      "constant": true,
      "inputs": [
        {
          "name": "_owner",
          "type": "address"
        },
        {
          "name": "_operator",
          "type": "address"
        }
      ],
      "name": "isApprovedForAll",
      "outputs": [
        {
          "name": "",
          "type": "bool"
        }
      ],
      "payable": false,
      "stateMutability": "view",
      "type": "function"
    },
    {
      "constant": false,
      "inputs": [
        {
          "name": "_newOwner",
          "type": "address"
        }
      ],
      "name": "transferOwnership",
      "outputs": [],
      "payable": false,
      "stateMutability": "nonpayable",
      "type": "function"
    },
    {
      "constant": true,
      "inputs": [
        {
          "name": "",
          "type": "uint256"
        }
      ],
      "name": "DogList",
      "outputs": [
        {
          "name": "owner",
          "type": "address"
        },
        {
          "name": "name",
          "type": "string"
        },
        {
          "name": "Id",
          "type": "uint256"
        },
        {
          "name": "breed",
          "type": "string"
        },
        {
          "name": "age",
          "type": "uint256"
        },
        {
          "name": "weight",
          "type": "uint256"
        },
        {
          "name": "Auction",
          "type": "bool"
        },
        {
          "name": "price",
          "type": "uint256"
        },
        {
          "name": "bidMax",
          "type": "address"
        },
        {
          "name": "timeAuction",
          "type": "uint256"
        }
      ],
      "payable": false,
      "stateMutability": "view",
      "type": "function"
    },
    {
      "inputs": [],
      "payable": false,
      "stateMutability": "nonpayable",
      "type": "constructor"
    },
    {
      "anonymous": false,
      "inputs": [
        {
          "indexed": true,
          "name": "previousOwner",
          "type": "address"
        }
      ],
      "name": "OwnershipRenounced",
      "type": "event"
    },
    {
      "anonymous": false,
      "inputs": [
        {
          "indexed": true,
          "name": "previousOwner",
          "type": "address"
        },
        {
          "indexed": true,
          "name": "newOwner",
          "type": "address"
        }
      ],
      "name": "OwnershipTransferred",
      "type": "event"
    },
    {
      "anonymous": false,
      "inputs": [
        {
          "indexed": true,
          "name": "_from",
          "type": "address"
        },
        {
          "indexed": true,
          "name": "_to",
          "type": "address"
        },
        {
          "indexed": true,
          "name": "_tokenId",
          "type": "uint256"
        }
      ],
      "name": "Transfer",
      "type": "event"
    },
    {
      "anonymous": false,
      "inputs": [
        {
          "indexed": true,
          "name": "_owner",
          "type": "address"
        },
        {
          "indexed": true,
          "name": "_approved",
          "type": "address"
        },
        {
          "indexed": true,
          "name": "_tokenId",
          "type": "uint256"
        }
      ],
      "name": "Approval",
      "type": "event"
    },
    {
      "anonymous": false,
      "inputs": [
        {
          "indexed": true,
          "name": "_owner",
          "type": "address"
        },
        {
          "indexed": true,
          "name": "_operator",
          "type": "address"
        },
        {
          "indexed": false,
          "name": "_approved",
          "type": "bool"
        }
      ],
      "name": "ApprovalForAll",
      "type": "event"
    },
    {
      "constant": false,
      "inputs": [
        {
          "name": "addr",
          "type": "address"
        }
      ],
      "name": "RegisterBreeder",
      "outputs": [],
      "payable": false,
      "stateMutability": "nonpayable",
      "type": "function"
    },
    {
      "constant": false,
      "inputs": [
        {
          "name": "Owner",
          "type": "address"
        },
        {
          "name": "Name",
          "type": "string"
        },
        {
          "name": "Breed",
          "type": "string"
        },
        {
          "name": "Age",
          "type": "uint256"
        },
        {
          "name": "Weight",
          "type": "uint256"
        }
      ],
      "name": "declareAnimal",
      "outputs": [],
      "payable": false,
      "stateMutability": "nonpayable",
      "type": "function"
    },
    {
      "constant": false,
      "inputs": [
        {
          "name": "deadDogId",
          "type": "uint256"
        }
      ],
      "name": "deadAnimal",
      "outputs": [],
      "payable": false,
      "stateMutability": "nonpayable",
      "type": "function"
    },
    {
      "constant": true,
      "inputs": [
        {
          "name": "a",
          "type": "string"
        },
        {
          "name": "b",
          "type": "string"
        }
      ],
      "name": "compareStrings",
      "outputs": [
        {
          "name": "",
          "type": "bool"
        }
      ],
      "payable": false,
      "stateMutability": "view",
      "type": "function"
    },
    {
      "constant": false,
      "inputs": [
        {
          "name": "IdDog1",
          "type": "uint256"
        },
        {
          "name": "IdDog2",
          "type": "uint256"
        },
        {
          "name": "namePuppy",
          "type": "string"
        },
        {
          "name": "weightPuppy",
          "type": "uint256"
        }
      ],
      "name": "breedAnimal",
      "outputs": [],
      "payable": false,
      "stateMutability": "nonpayable",
      "type": "function"
    },
    {
      "constant": false,
      "inputs": [
        {
          "name": "prixDepart",
          "type": "uint256"
        },
        {
          "name": "IdDog",
          "type": "uint256"
        }
      ],
      "name": "CreateAuction",
      "outputs": [],
      "payable": false,
      "stateMutability": "nonpayable",
      "type": "function"
    },
    {
      "constant": false,
      "inputs": [
        {
          "name": "bid",
          "type": "uint256"
        },
        {
          "name": "IdDog",
          "type": "uint256"
        }
      ],
      "name": "bidOnAuction",
      "outputs": [],
      "payable": false,
      "stateMutability": "nonpayable",
      "type": "function"
    },
    {
      "constant": false,
      "inputs": [
        {
          "name": "IdDog",
          "type": "uint256"
        }
      ],
      "name": "ClaimAuction",
      "outputs": [],
      "payable": false,
      "stateMutability": "nonpayable",
      "type": "function"
    }
  ],
  "bytecode": "0x60806040523480156200001157600080fd5b506200004f6301ffc9a77c010000000000000000000000000000000000000000000000000000000002620001f5640100000000026401000000009004565b6200008c6380ac58cd7c010000000000000000000000000000000000000000000000000000000002620001f5640100000000026401000000009004565b620000c9634f558e797c010000000000000000000000000000000000000000000000000000000002620001f5640100000000026401000000009004565b33600560006101000a81548173ffffffffffffffffffffffffffffffffffffffff021916908373ffffffffffffffffffffffffffffffffffffffff1602179055506040805190810160405280600381526020017f444f4700000000000000000000000000000000000000000000000000000000008152506007908051906020019062000157929190620002b3565b506040805190810160405280600881526020017f446f67546f6b656e00000000000000000000000000000000000000000000000081525060069080519060200190620001a5929190620002b3565b5033600560006101000a81548173ffffffffffffffffffffffffffffffffffffffff021916908373ffffffffffffffffffffffffffffffffffffffff160217905550600160088190555062000362565b63ffffffff7c010000000000000000000000000000000000000000000000000000000002817bffffffffffffffffffffffffffffffffffffffffffffffffffffffff1916141515156200024757600080fd5b6001600080837bffffffffffffffffffffffffffffffffffffffffffffffffffffffff19167bffffffffffffffffffffffffffffffffffffffffffffffffffffffff1916815260200190815260200160002060006101000a81548160ff02191690831515021790555050565b828054600181600116156101000203166002900490600052602060002090601f016020900481019282601f10620002f657805160ff191683800117855562000327565b8280016001018555821562000327579182015b828111156200032657825182559160200191906001019062000309565b5b5090506200033691906200033a565b5090565b6200035f91905b808211156200035b57600081600090555060010162000341565b5090565b90565b61341180620003726000396000f30060806040526004361061015f576000357c0100000000000000000000000000000000000000000000000000000000900463ffffffff16806301ffc9a71461016457806302ecceb3146101c857806306fdde03146101f5578063081812fc14610285578063095ea7b3146102f25780630a8bc9a51461033f57806319fa8f501461037657806323b872dd146103df57806342842e0e1461044c5780634f558e79146104b95780635b3bc8d5146104fe5780636352211e1461056b578063642cb1b1146105d857806370a082311461061b578063715018a6146106725780638ba47bdd146106895780638da5cb5b146107195780639f63512014610770578063a22cb465146107a7578063b88d4fde146107f6578063bed34bba146108a9578063c6505fde14610970578063e985e9c5146109f7578063ec9b6db914610a72578063f2fde38b14610a9f578063f3799ac314610ae2578063f64e675114610c88575b600080fd5b34801561017057600080fd5b506101ae60048036038101908080357bffffffffffffffffffffffffffffffffffffffffffffffffffffffff19169060200190929190505050610d6b565b604051808215151515815260200191505060405180910390f35b3480156101d457600080fd5b506101f360048036038101908080359060200190929190505050610dd2565b005b34801561020157600080fd5b5061020a610f51565b6040518080602001828103825283818151815260200191508051906020019080838360005b8381101561024a57808201518184015260208101905061022f565b50505050905090810190601f1680156102775780820380516001836020036101000a031916815260200191505b509250505060405180910390f35b34801561029157600080fd5b506102b060048036038101908080359060200190929190505050610fef565b604051808273ffffffffffffffffffffffffffffffffffffffff1673ffffffffffffffffffffffffffffffffffffffff16815260200191505060405180910390f35b3480156102fe57600080fd5b5061033d600480360381019080803573ffffffffffffffffffffffffffffffffffffffff1690602001909291908035906020019092919050505061102c565b005b34801561034b57600080fd5b506103746004803603810190808035906020019092919080359060200190929190505050611171565b005b34801561038257600080fd5b5061038b6112a2565b60405180827bffffffffffffffffffffffffffffffffffffffffffffffffffffffff19167bffffffffffffffffffffffffffffffffffffffffffffffffffffffff1916815260200191505060405180910390f35b3480156103eb57600080fd5b5061044a600480360381019080803573ffffffffffffffffffffffffffffffffffffffff169060200190929190803573ffffffffffffffffffffffffffffffffffffffff169060200190929190803590602001909291905050506112c9565b005b34801561045857600080fd5b506104b7600480360381019080803573ffffffffffffffffffffffffffffffffffffffff169060200190929190803573ffffffffffffffffffffffffffffffffffffffff169060200190929190803590602001909291905050506113d4565b005b3480156104c557600080fd5b506104e4600480360381019080803590602001909291905050506113f5565b604051808215151515815260200191505060405180910390f35b34801561050a57600080fd5b5061052960048036038101908080359060200190929190505050611467565b604051808273ffffffffffffffffffffffffffffffffffffffff1673ffffffffffffffffffffffffffffffffffffffff16815260200191505060405180910390f35b34801561057757600080fd5b50610596600480360381019080803590602001909291905050506114a5565b604051808273ffffffffffffffffffffffffffffffffffffffff1673ffffffffffffffffffffffffffffffffffffffff16815260200191505060405180910390f35b3480156105e457600080fd5b50610619600480360381019080803573ffffffffffffffffffffffffffffffffffffffff169060200190929190505050611523565b005b34801561062757600080fd5b5061065c600480360381019080803573ffffffffffffffffffffffffffffffffffffffff16906020019092919050505061169f565b6040518082815260200191505060405180910390f35b34801561067e57600080fd5b50610687611723565b005b34801561069557600080fd5b5061069e611828565b6040518080602001828103825283818151815260200191508051906020019080838360005b838110156106de5780820151818401526020810190506106c3565b50505050905090810190601f16801561070b5780820380516001836020036101000a031916815260200191505b509250505060405180910390f35b34801561072557600080fd5b5061072e6118c6565b604051808273ffffffffffffffffffffffffffffffffffffffff1673ffffffffffffffffffffffffffffffffffffffff16815260200191505060405180910390f35b34801561077c57600080fd5b506107a560048036038101908080359060200190929190803590602001909291905050506118ec565b005b3480156107b357600080fd5b506107f4600480360381019080803573ffffffffffffffffffffffffffffffffffffffff169060200190929190803515159060200190929190505050611a94565b005b34801561080257600080fd5b506108a7600480360381019080803573ffffffffffffffffffffffffffffffffffffffff169060200190929190803573ffffffffffffffffffffffffffffffffffffffff16906020019092919080359060200190929190803590602001908201803590602001908080601f0160208091040260200160405190810160405280939291908181526020018383808284378201915050505050509192919290505050611bd0565b005b3480156108b557600080fd5b50610956600480360381019080803590602001908201803590602001908080601f0160208091040260200160405190810160405280939291908181526020018383808284378201915050505050509192919290803590602001908201803590602001908080601f0160208091040260200160405190810160405280939291908181526020018383808284378201915050505050509192919290505050611bf8565b604051808215151515815260200191505060405180910390f35b34801561097c57600080fd5b506109f56004803603810190808035906020019092919080359060200190929190803590602001908201803590602001908080601f016020809104026020016040519081016040528093929190818152602001838380828437820191505050505050919291929080359060200190929190505050611da9565b005b348015610a0357600080fd5b50610a58600480360381019080803573ffffffffffffffffffffffffffffffffffffffff169060200190929190803573ffffffffffffffffffffffffffffffffffffffff16906020019092919050505061207e565b604051808215151515815260200191505060405180910390f35b348015610a7e57600080fd5b50610a9d60048036038101908080359060200190929190505050612112565b005b348015610aab57600080fd5b50610ae0600480360381019080803573ffffffffffffffffffffffffffffffffffffffff169060200190929190505050612474565b005b348015610aee57600080fd5b50610b0d600480360381019080803590602001909291905050506124dc565b604051808b73ffffffffffffffffffffffffffffffffffffffff1673ffffffffffffffffffffffffffffffffffffffff168152602001806020018a815260200180602001898152602001888152602001871515151581526020018681526020018573ffffffffffffffffffffffffffffffffffffffff1673ffffffffffffffffffffffffffffffffffffffff16815260200184815260200183810383528c818151815260200191508051906020019080838360005b83811015610bdd578082015181840152602081019050610bc2565b50505050905090810190601f168015610c0a5780820380516001836020036101000a031916815260200191505b5083810382528a818151815260200191508051906020019080838360005b83811015610c43578082015181840152602081019050610c28565b50505050905090810190601f168015610c705780820380516001836020036101000a031916815260200191505b509c5050505050505050505050505060405180910390f35b348015610c9457600080fd5b50610d69600480360381019080803573ffffffffffffffffffffffffffffffffffffffff169060200190929190803590602001908201803590602001908080601f0160208091040260200160405190810160405280939291908181526020018383808284378201915050505050509192919290803590602001908201803590602001908080601f016020809104026020016040519081016040528093929190818152602001838380828437820191505050505050919291929080359060200190929190803590602001909291905050506126bc565b005b6000806000837bffffffffffffffffffffffffffffffffffffffffffffffffffffffff19167bffffffffffffffffffffffffffffffffffffffffffffffffffffffff1916815260200190815260200160002060009054906101000a900460ff169050919050565b6000610ddd82612910565b905060011515600b82815481101515610df257fe5b90600052602060002090600a020160060160009054906101000a900460ff1615151415610f4d573373ffffffffffffffffffffffffffffffffffffffff16600b82815481101515610e3f57fe5b90600052602060002090600a020160080160009054906101000a900473ffffffffffffffffffffffffffffffffffffffff1673ffffffffffffffffffffffffffffffffffffffff161415610f4c576000600b82815481101515610e9e57fe5b90600052602060002090600a020160060160006101000a81548160ff0219169083151502179055506000600b82815481101515610ed757fe5b90600052602060002090600a02016007018190555033600b82815481101515610efc57fe5b90600052602060002090600a020160000160006101000a81548173ffffffffffffffffffffffffffffffffffffffff021916908373ffffffffffffffffffffffffffffffffffffffff1602179055505b5b5050565b60068054600181600116156101000203166002900480601f016020809104026020016040519081016040528092919081815260200182805460018160011615610100020316600290048015610fe75780601f10610fbc57610100808354040283529160200191610fe7565b820191906000526020600020905b815481529060010190602001808311610fca57829003601f168201915b505050505081565b60006002600083815260200190815260200160002060009054906101000a900473ffffffffffffffffffffffffffffffffffffffff169050919050565b6000611037826114a5565b90508073ffffffffffffffffffffffffffffffffffffffff168373ffffffffffffffffffffffffffffffffffffffff161415151561107457600080fd5b8073ffffffffffffffffffffffffffffffffffffffff163373ffffffffffffffffffffffffffffffffffffffff1614806110b457506110b3813361207e565b5b15156110bf57600080fd5b826002600084815260200190815260200160002060006101000a81548173ffffffffffffffffffffffffffffffffffffffff021916908373ffffffffffffffffffffffffffffffffffffffff160217905550818373ffffffffffffffffffffffffffffffffffffffff168273ffffffffffffffffffffffffffffffffffffffff167f8c5be1e5ebec7d5bd14f71427d1e84f3dd0314c0f7b2291e5b200ac8c7c3b92560405160405180910390a4505050565b6000600560009054906101000a900473ffffffffffffffffffffffffffffffffffffffff1673ffffffffffffffffffffffffffffffffffffffff163373ffffffffffffffffffffffffffffffffffffffff161415156111cf57600080fd5b6111d882612910565b905060001515600b828154811015156111ed57fe5b90600052602060002090600a020160060160009054906101000a900460ff16151514151561121a57600080fd5b6001600b8281548110151561122b57fe5b90600052602060002090600a020160060160006101000a81548160ff02191690831515021790555082600b8281548110151561126357fe5b90600052602060002090600a02016007018190555042600b8281548110151561128857fe5b90600052602060002090600a020160090181905550505050565b6301ffc9a77c01000000000000000000000000000000000000000000000000000000000281565b6112d3338261296d565b15156112de57600080fd5b600073ffffffffffffffffffffffffffffffffffffffff168373ffffffffffffffffffffffffffffffffffffffff161415151561131a57600080fd5b600073ffffffffffffffffffffffffffffffffffffffff168273ffffffffffffffffffffffffffffffffffffffff161415151561135657600080fd5b6113608382612a02565b61136a8382612b05565b6113748282612c34565b808273ffffffffffffffffffffffffffffffffffffffff168473ffffffffffffffffffffffffffffffffffffffff167fddf252ad1be2c89b69c2b068fc378daa952ba7f163c4a11628f55a4df523b3ef60405160405180910390a4505050565b6113f08383836020604051908101604052806000815250611bd0565b505050565b6000806001600084815260200190815260200160002060009054906101000a900473ffffffffffffffffffffffffffffffffffffffff169050600073ffffffffffffffffffffffffffffffffffffffff168173ffffffffffffffffffffffffffffffffffffffff161415915050919050565b600a8181548110151561147657fe5b906000526020600020016000915054906101000a900473ffffffffffffffffffffffffffffffffffffffff1681565b6000806001600084815260200190815260200160002060009054906101000a900473ffffffffffffffffffffffffffffffffffffffff169050600073ffffffffffffffffffffffffffffffffffffffff168173ffffffffffffffffffffffffffffffffffffffff161415151561151a57600080fd5b80915050919050565b600560009054906101000a900473ffffffffffffffffffffffffffffffffffffffff1673ffffffffffffffffffffffffffffffffffffffff163373ffffffffffffffffffffffffffffffffffffffff1614151561157f57600080fd5b60001515600960008373ffffffffffffffffffffffffffffffffffffffff1673ffffffffffffffffffffffffffffffffffffffff16815260200190815260200160002060009054906101000a900460ff1615151415156115de57600080fd5b6001600960008373ffffffffffffffffffffffffffffffffffffffff1673ffffffffffffffffffffffffffffffffffffffff16815260200190815260200160002060006101000a81548160ff021916908315150217905550600a8190806001815401808255809150509060018203906000526020600020016000909192909190916101000a81548173ffffffffffffffffffffffffffffffffffffffff021916908373ffffffffffffffffffffffffffffffffffffffff1602179055505050565b60008073ffffffffffffffffffffffffffffffffffffffff168273ffffffffffffffffffffffffffffffffffffffff16141515156116dc57600080fd5b600360008373ffffffffffffffffffffffffffffffffffffffff1673ffffffffffffffffffffffffffffffffffffffff168152602001908152602001600020549050919050565b600560009054906101000a900473ffffffffffffffffffffffffffffffffffffffff1673ffffffffffffffffffffffffffffffffffffffff163373ffffffffffffffffffffffffffffffffffffffff1614151561177f57600080fd5b600560009054906101000a900473ffffffffffffffffffffffffffffffffffffffff1673ffffffffffffffffffffffffffffffffffffffff167ff8df31144d9c2f0f6b59d69b8b98abd5459d07f2742c4df920b25aae33c6482060405160405180910390a26000600560006101000a81548173ffffffffffffffffffffffffffffffffffffffff021916908373ffffffffffffffffffffffffffffffffffffffff160217905550565b60078054600181600116156101000203166002900480601f0160208091040260200160405190810160405280929190818152602001828054600181600116156101000203166002900480156118be5780601f10611893576101008083540402835291602001916118be565b820191906000526020600020905b8154815290600101906020018083116118a157829003601f168201915b505050505081565b600560009054906101000a900473ffffffffffffffffffffffffffffffffffffffff1681565b60006118f782612910565b9050426202a300600b8381548110151561190d57fe5b90600052602060002090600a0201600901540110151561192c57600080fd5b60011515600b8281548110151561193f57fe5b90600052602060002090600a020160060160009054906101000a900460ff1615151415611a8f5782600b8281548110151561197657fe5b90600052602060002090600a0201600701541015611a8e5782600b8281548110151561199e57fe5b90600052602060002090600a02016007018190555033600b828154811015156119c357fe5b90600052602060002090600a020160080160006101000a81548173ffffffffffffffffffffffffffffffffffffffff021916908373ffffffffffffffffffffffffffffffffffffffff160217905550600b81815481101515611a2157fe5b90600052602060002090600a0201600201543373ffffffffffffffffffffffffffffffffffffffff163373ffffffffffffffffffffffffffffffffffffffff167fddf252ad1be2c89b69c2b068fc378daa952ba7f163c4a11628f55a4df523b3ef60405160405180910390a45b5b505050565b3373ffffffffffffffffffffffffffffffffffffffff168273ffffffffffffffffffffffffffffffffffffffff1614151515611acf57600080fd5b80600460003373ffffffffffffffffffffffffffffffffffffffff1673ffffffffffffffffffffffffffffffffffffffff16815260200190815260200160002060008473ffffffffffffffffffffffffffffffffffffffff1673ffffffffffffffffffffffffffffffffffffffff16815260200190815260200160002060006101000a81548160ff0219169083151502179055508173ffffffffffffffffffffffffffffffffffffffff163373ffffffffffffffffffffffffffffffffffffffff167f17307eab39ab6107e8899845ad3d59bd9653f200f220920489ca2b5937696c3183604051808215151515815260200191505060405180910390a35050565b611bdb8484846112c9565b611be784848484612d8e565b1515611bf257600080fd5b50505050565b6000816040516020018082805190602001908083835b602083101515611c335780518252602082019150602081019050602083039250611c0e565b6001836020036101000a0380198251168184511680821785525050505050509050019150506040516020818303038152906040526040518082805190602001908083835b602083101515611c9c5780518252602082019150602081019050602083039250611c77565b6001836020036101000a038019825116818451168082178552505050505050905001915050604051809103902060001916836040516020018082805190602001908083835b602083101515611d065780518252602082019150602081019050602083039250611ce1565b6001836020036101000a0380198251168184511680821785525050505050509050019150506040516020818303038152906040526040518082805190602001908083835b602083101515611d6f5780518252602082019150602081019050602083039250611d4a565b6001836020036101000a03801982511681845116808217855250505050505090500191505060405180910390206000191614905092915050565b6000806000806060611dba89612910565b9450611dc588612910565b9350600b85815481101515611dd657fe5b90600052602060002090600a02016003019250600b84815481101515611df857fe5b90600052602060002090600a020160030191506040805190810160405280600181526020017f2000000000000000000000000000000000000000000000000000000000000000815250905060011515611f83848054600181600116156101000203166002900480601f016020809104026020016040519081016040528092919081815260200182805460018160011615610100020316600290048015611edf5780601f10611eb457610100808354040283529160200191611edf565b820191906000526020600020905b815481529060010190602001808311611ec257829003601f168201915b5050505050848054600181600116156101000203166002900480601f016020809104026020016040519081016040528092919081815260200182805460018160011615610100020316600290048015611f795780601f10611f4e57610100808354040283529160200191611f79565b820191906000526020600020905b815481529060010190602001808311611f5c57829003601f168201915b5050505050611bf8565b1515141561202c57828054600181600116156101000203166002900480601f0160208091040260200160405190810160405280929190818152602001828054600181600116156101000203166002900480156120205780601f10611ff557610100808354040283529160200191612020565b820191906000526020600020905b81548152906001019060200180831161200357829003601f168201915b50505050509050612065565b6040805190810160405280600781526020017f426173746172640000000000000000000000000000000000000000000000000081525090505b61207333888360008a6126bc565b505050505050505050565b6000600460008473ffffffffffffffffffffffffffffffffffffffff1673ffffffffffffffffffffffffffffffffffffffff16815260200190815260200160002060008373ffffffffffffffffffffffffffffffffffffffff1673ffffffffffffffffffffffffffffffffffffffff16815260200190815260200160002060009054906101000a900460ff16905092915050565b60008061211e83612910565b9150600082141561246e573373ffffffffffffffffffffffffffffffffffffffff16600b8381548110151561214f57fe5b90600052602060002090600a020160000160009054906101000a900473ffffffffffffffffffffffffffffffffffffffff1673ffffffffffffffffffffffffffffffffffffffff161415156121a357600080fd5b8190505b6001600b805490500381101561238157600b600182018154811015156121c957fe5b90600052602060002090600a0201600b828154811015156121e657fe5b90600052602060002090600a02016000820160009054906101000a900473ffffffffffffffffffffffffffffffffffffffff168160000160006101000a81548173ffffffffffffffffffffffffffffffffffffffff021916908373ffffffffffffffffffffffffffffffffffffffff160217905550600182018160010190805460018160011615610100020316600290046122829291906130f4565b5060028201548160020155600382018160030190805460018160011615610100020316600290046122b49291906130f4565b5060048201548160040155600582015481600501556006820160009054906101000a900460ff168160060160006101000a81548160ff021916908315150217905550600782015481600701556008820160009054906101000a900473ffffffffffffffffffffffffffffffffffffffff168160080160006101000a81548173ffffffffffffffffffffffffffffffffffffffff021916908373ffffffffffffffffffffffffffffffffffffffff1602179055506009820154816009015590505080806001019150506121a7565b600b6001600b805490500381548110151561239857fe5b90600052602060002090600a0201600080820160006101000a81549073ffffffffffffffffffffffffffffffffffffffff02191690556001820160006123de919061317b565b60028201600090556003820160006123f6919061317b565b600482016000905560058201600090556006820160006101000a81549060ff021916905560078201600090556008820160006101000a81549073ffffffffffffffffffffffffffffffffffffffff021916905560098201600090555050600b80548091906001900361246891906131c3565b5061246f565b5b505050565b600560009054906101000a900473ffffffffffffffffffffffffffffffffffffffff1673ffffffffffffffffffffffffffffffffffffffff163373ffffffffffffffffffffffffffffffffffffffff161415156124d057600080fd5b6124d981612fb0565b50565b600b818154811015156124eb57fe5b90600052602060002090600a02016000915090508060000160009054906101000a900473ffffffffffffffffffffffffffffffffffffffff1690806001018054600181600116156101000203166002900480601f0160208091040260200160405190810160405280929190818152602001828054600181600116156101000203166002900480156125bd5780601f10612592576101008083540402835291602001916125bd565b820191906000526020600020905b8154815290600101906020018083116125a057829003601f168201915b505050505090806002015490806003018054600181600116156101000203166002900480601f0160208091040260200160405190810160405280929190818152602001828054600181600116156101000203166002900480156126615780601f1061263657610100808354040283529160200191612661565b820191906000526020600020905b81548152906001019060200180831161264457829003601f168201915b5050505050908060040154908060050154908060060160009054906101000a900460ff16908060070154908060080160009054906101000a900473ffffffffffffffffffffffffffffffffffffffff1690806009015490508a565b6126c46131f5565b85816000019073ffffffffffffffffffffffffffffffffffffffff16908173ffffffffffffffffffffffffffffffffffffffff168152505084816020018190525083816060018190525082816080018181525050818160a001818152505060085481604001818152505060008160c001901515908115158152505060008160e0018181525050600860008154809291906001019190505550600b819080600181540180825580915050906001820390600052602060002090600a02016000909192909190915060008201518160000160006101000a81548173ffffffffffffffffffffffffffffffffffffffff021916908373ffffffffffffffffffffffffffffffffffffffff16021790555060208201518160010190805190602001906127ed929190613277565b50604082015181600201556060820151816003019080519060200190612814929190613277565b506080820151816004015560a0820151816005015560c08201518160060160006101000a81548160ff02191690831515021790555060e082015181600701556101008201518160080160006101000a81548173ffffffffffffffffffffffffffffffffffffffff021916908373ffffffffffffffffffffffffffffffffffffffff160217905550610120820151816009015550505080604001513373ffffffffffffffffffffffffffffffffffffffff163373ffffffffffffffffffffffffffffffffffffffff167fddf252ad1be2c89b69c2b068fc378daa952ba7f163c4a11628f55a4df523b3ef60405160405180910390a4505050505050565b600080600090505b600b805490508110156129625782600b8281548110151561293557fe5b90600052602060002090600a020160020154141561295557809150612967565b8080600101915050612918565b600091505b50919050565b600080612979836114a5565b90508073ffffffffffffffffffffffffffffffffffffffff168473ffffffffffffffffffffffffffffffffffffffff1614806129e857508373ffffffffffffffffffffffffffffffffffffffff166129d084610fef565b73ffffffffffffffffffffffffffffffffffffffff16145b806129f957506129f8818561207e565b5b91505092915050565b8173ffffffffffffffffffffffffffffffffffffffff16612a22826114a5565b73ffffffffffffffffffffffffffffffffffffffff16141515612a4457600080fd5b600073ffffffffffffffffffffffffffffffffffffffff166002600083815260200190815260200160002060009054906101000a900473ffffffffffffffffffffffffffffffffffffffff1673ffffffffffffffffffffffffffffffffffffffff16141515612b015760006002600083815260200190815260200160002060006101000a81548173ffffffffffffffffffffffffffffffffffffffff021916908373ffffffffffffffffffffffffffffffffffffffff1602179055505b5050565b8173ffffffffffffffffffffffffffffffffffffffff16612b25826114a5565b73ffffffffffffffffffffffffffffffffffffffff16141515612b4757600080fd5b612b9a6001600360008573ffffffffffffffffffffffffffffffffffffffff1673ffffffffffffffffffffffffffffffffffffffff168152602001908152602001600020546130ac90919063ffffffff16565b600360008473ffffffffffffffffffffffffffffffffffffffff1673ffffffffffffffffffffffffffffffffffffffff1681526020019081526020016000208190555060006001600083815260200190815260200160002060006101000a81548173ffffffffffffffffffffffffffffffffffffffff021916908373ffffffffffffffffffffffffffffffffffffffff1602179055505050565b600073ffffffffffffffffffffffffffffffffffffffff166001600083815260200190815260200160002060009054906101000a900473ffffffffffffffffffffffffffffffffffffffff1673ffffffffffffffffffffffffffffffffffffffff16141515612ca257600080fd5b816001600083815260200190815260200160002060006101000a81548173ffffffffffffffffffffffffffffffffffffffff021916908373ffffffffffffffffffffffffffffffffffffffff160217905550612d476001600360008573ffffffffffffffffffffffffffffffffffffffff1673ffffffffffffffffffffffffffffffffffffffff168152602001908152602001600020546130c590919063ffffffff16565b600360008473ffffffffffffffffffffffffffffffffffffffff1673ffffffffffffffffffffffffffffffffffffffff168152602001908152602001600020819055505050565b600080612db08573ffffffffffffffffffffffffffffffffffffffff166130e1565b1515612dbf5760019150612fa7565b8473ffffffffffffffffffffffffffffffffffffffff1663150b7a02338887876040518563ffffffff167c0100000000000000000000000000000000000000000000000000000000028152600401808573ffffffffffffffffffffffffffffffffffffffff1673ffffffffffffffffffffffffffffffffffffffff1681526020018473ffffffffffffffffffffffffffffffffffffffff1673ffffffffffffffffffffffffffffffffffffffff16815260200183815260200180602001828103825283818151815260200191508051906020019080838360005b83811015612eb4578082015181840152602081019050612e99565b50505050905090810190601f168015612ee15780820380516001836020036101000a031916815260200191505b5095505050505050602060405180830381600087803b158015612f0357600080fd5b505af1158015612f17573d6000803e3d6000fd5b505050506040513d6020811015612f2d57600080fd5b8101908080519060200190929190505050905063150b7a027c0100000000000000000000000000000000000000000000000000000000027bffffffffffffffffffffffffffffffffffffffffffffffffffffffff1916817bffffffffffffffffffffffffffffffffffffffffffffffffffffffff19161491505b50949350505050565b600073ffffffffffffffffffffffffffffffffffffffff168173ffffffffffffffffffffffffffffffffffffffff1614151515612fec57600080fd5b8073ffffffffffffffffffffffffffffffffffffffff16600560009054906101000a900473ffffffffffffffffffffffffffffffffffffffff1673ffffffffffffffffffffffffffffffffffffffff167f8be0079c531659141344cd1fd0a4f28419497f9722a3daafe3b4186f6b6457e060405160405180910390a380600560006101000a81548173ffffffffffffffffffffffffffffffffffffffff021916908373ffffffffffffffffffffffffffffffffffffffff16021790555050565b60008282111515156130ba57fe5b818303905092915050565b600081830190508281101515156130d857fe5b80905092915050565b600080823b905060008111915050919050565b828054600181600116156101000203166002900490600052602060002090601f016020900481019282601f1061312d578054855561316a565b8280016001018555821561316a57600052602060002091601f016020900482015b8281111561316957825482559160010191906001019061314e565b5b50905061317791906132f7565b5090565b50805460018160011615610100020316600290046000825580601f106131a157506131c0565b601f0160209004906000526020600020908101906131bf91906132f7565b5b50565b8154818355818111156131f057600a0281600a0283600052602060002091820191016131ef919061331c565b5b505050565b61014060405190810160405280600073ffffffffffffffffffffffffffffffffffffffff168152602001606081526020016000815260200160608152602001600081526020016000815260200160001515815260200160008152602001600073ffffffffffffffffffffffffffffffffffffffff168152602001600081525090565b828054600181600116156101000203166002900490600052602060002090601f016020900481019282601f106132b857805160ff19168380011785556132e6565b828001600101855582156132e6579182015b828111156132e55782518255916020019190600101906132ca565b5b5090506132f391906132f7565b5090565b61331991905b808211156133155760008160009055506001016132fd565b5090565b90565b6133e291905b808211156133de57600080820160006101000a81549073ffffffffffffffffffffffffffffffffffffffff0219169055600182016000613362919061317b565b600282016000905560038201600061337a919061317b565b600482016000905560058201600090556006820160006101000a81549060ff021916905560078201600090556008820160006101000a81549073ffffffffffffffffffffffffffffffffffffffff0219169055600982016000905550600a01613322565b5090565b905600a165627a7a72305820fedba0967df044ddc4906e32e28f5b12d0d2127d54d00e7189171a4790f810b10029",
  "source": "pragma solidity >=0.4.24; \r\n\r\nimport \"../openzeppelin-solidity/contracts/token/ERC721/ERC721BasicToken.sol\";\r\nimport \"../openzeppelin-solidity/contracts/token/ERC721/ERC721Token.sol\";\r\nimport \"../openzeppelin-solidity/contracts/ownership/Ownable.sol\"; \r\n\r\n\r\ncontract DogToken is ERC721BasicToken, Ownable {\r\n\r\n    struct Dog\r\n    {\r\n        address owner;\r\n        string name;\r\n        uint Id;\r\n        string breed;\r\n        uint age;\r\n        uint weight;\r\n\r\n        bool Auction;\r\n        uint price;\r\n        address bidMax;\r\n        uint timeAuction;\r\n    }\r\n\r\n    string public name;\r\n    string public ticker;\r\n    uint incrementId;\r\n\r\n    mapping(address => bool) breeder;\r\n    address[] public breederList;\r\n\r\n    Dog[] public DogList;\r\n\r\n\r\n    constructor() public { \r\n        ticker = \"DOG\"; \r\n        name = \"DogToken\";\r\n        owner = msg.sender;  \r\n        incrementId = 1;\r\n    }\r\n\r\n    function RegisterBreeder(address addr) public {\r\n        require(msg.sender == owner);\r\n        require(breeder[addr] == false);\r\n        \r\n        breeder[addr] = true;\r\n        breederList.push(addr);\r\n    }\r\n\r\n    function declareAnimal(address Owner, string Name, string Breed, uint Age, uint Weight) public {\r\n        Dog memory Dogo;\r\n        Dogo.owner = Owner;\r\n        Dogo.name = Name;\r\n        Dogo.breed = Breed;\r\n        Dogo.age = Age;\r\n        Dogo.weight = Weight;\r\n        Dogo.Id = incrementId;\r\n\r\n        Dogo.Auction = false;\r\n        Dogo.price = 0;\r\n\r\n        incrementId ++;\r\n        DogList.push(Dogo);\r\n        emit Transfer(msg.sender, msg.sender, Dogo.Id);\r\n    }\r\n\r\n    function findIndexDog(uint IdDog) private returns (uint){\r\n \r\n        for(uint j = 0; j<DogList.length; j++)\r\n        {\r\n            if(DogList[j].Id == IdDog){\r\n                return j;\r\n            }\r\n        }\r\n        return 0;\r\n    }\r\n\r\n    function deadAnimal(uint deadDogId) public {\r\n        uint index = findIndexDog(deadDogId);\r\n        if (index == 0){\r\n            require (DogList[index].owner == msg.sender);\r\n            for (uint i = index; i<DogList.length-1; i++){\r\n                DogList[i] = DogList[i+1];\r\n            }\r\n            delete DogList[DogList.length-1];\r\n            DogList.length--;\r\n\r\n        }\r\n        else{\r\n            //emit Transfer(msg.sender,msg.sender, deadDogId);\r\n        }\r\n    }\r\n\r\n    function compareStrings (string memory a, string memory b) public view returns (bool) {\r\n        return keccak256(abi.encodePacked(a)) == keccak256(abi.encodePacked(b));\r\n    }\r\n\r\n    function breedAnimal(uint IdDog1, uint IdDog2, string namePuppy, uint weightPuppy) public{\r\n\r\n        uint Index1 = findIndexDog(IdDog1);\r\n        uint Index2 = findIndexDog(IdDog2);\r\n        \r\n        string breed1 = DogList[Index1].breed;\r\n        string breed2 = DogList[Index2].breed;\r\n        string memory breedPuppy = \" \";\r\n\r\n        if(compareStrings(breed1, breed2) == true){\r\n            breedPuppy = breed1;\r\n        } else {\r\n            breedPuppy = \"Bastard\";\r\n        }\r\n        \r\n        declareAnimal(msg.sender, namePuppy, breedPuppy, 0, weightPuppy);\r\n    }\r\n\r\n\r\n    function CreateAuction(uint prixDepart, uint IdDog)public{\r\n        require(msg.sender == owner);\r\n        uint IndexDog = findIndexDog(IdDog);\r\n\r\n        require (DogList[IndexDog].Auction == false);\r\n        DogList[IndexDog].Auction = true; \r\n        DogList[IndexDog].price = prixDepart;\r\n\r\n        DogList[IndexDog].timeAuction = now;\r\n    }\r\n\r\n    function bidOnAuction(uint bid, uint IdDog)public{\r\n        uint IndexDog = findIndexDog(IdDog);\r\n\r\n        require(DogList[IndexDog].timeAuction + 2 days < now);\r\n\r\n        if(DogList[IndexDog].Auction == true){\r\n            if (DogList[IndexDog].price < bid){\r\n                DogList[IndexDog].price = bid;\r\n                DogList[IndexDog].bidMax = msg.sender;\r\n                emit Transfer(msg.sender, msg.sender, DogList[IndexDog].Id);\r\n            }\r\n        }\r\n    }\r\n\r\n    function ClaimAuction(uint IdDog)public{\r\n        uint IndexDog = findIndexDog(IdDog);\r\n\r\n        if(DogList[IndexDog].Auction == true){\r\n            if(DogList[IndexDog].bidMax == msg.sender)\r\n            {\r\n                DogList[IndexDog].Auction = false;\r\n                DogList[IndexDog].price = 0;\r\n                DogList[IndexDog].owner = msg.sender;\r\n            }\r\n        }\r\n\r\n    }\r\n}",
  "sourcePath": "C:\\Users\\fouri\\OneDrive\\Bureau\\COURS_A4\\S8\\BlockchainProgramming\\ERC721\\contracts\\DogToken.sol",
  "compiler": {
    "name": "solc",
    "version": "0.4.25+commit.59dbf8f1.Emscripten.clang"
  },
  "schemaVersion": "2.0.2",
  "updatedAt": "2019-03-17T16:56:15.857Z"
}